:020000040800F2
:1000000000000220819B0008011600080F1600085E
:10001000151600081B160008211600080000000035
:10002000000000000000000000000000271600088B
:10003000351600080000000043160008511600089D
:10004000D19B0008D19B0008D19B0008D19B0008E0
:10005000D19B0008D19B0008D19B0008D19B0008D0
:10006000D19B0008D19B0008D19B0008D19B0008C0
:10007000D19B0008D19B0008D19B0008D19B0008B0
:10008000D19B0008D19B0008D19B0008D19B0008A0
:10009000D19B0008D19B0008D19B0008D19B000890
:1000A000D19B0008D19B0008D19B0008D19B000880
:1000B000D19B0008D19B0008D19B0008D19B000870
:1000C000D19B0008D19B0008D19B0008D19B000860
:1000D000D19B0008D19B0008D19B0008D19B000850
:1000E000D19B0008D19B0008D19B0008D19B000840
:1000F000D19B0008D19B0008D19B0008D19B000830
:10010000D19B0008D19B0008D19B0008D19B00081F
:10011000D19B0008D19B0008D19B0008D19B00080F
:10012000D19B0008D19B0008D19B0008D19B0008FF
:10013000D19B0008D19B0008D19B0008D19B0008EF
:10014000D19B0008D19B0008D19B00085D160008D8
:10015000D19B0008D19B0008D19B0008D19B0008CF
:10016000D19B0008D19B0008D19B0008D19B0008BF
:10017000D19B0008D19B0008D19B00080000000023
:08018000D19B0008D19B00088F
:1001880010B5054C237833B9044B13B10448AFF3C9
:1001980000800123237010BD9000002000000000A3
:1001A800D49D000808B5034B1BB103490348AFF3BE
:1001B800008008BD0000000094000020D49D0008C5
:1001C80070B54FF0FF0C4CF4E06C1CEA11541DBFE5
:1001D8001CEA135594EA0C0F95EA0C0F00F0DEF8B0
:1001E8002C4481EA030621EA4C5123EA4C5350EA95
:1001F800013518BF52EA033541F4801143F48013E6
:1002080038D0A0FB02CE4FF00005E1FB02E506F076
:100218000042E0FB03E54FF00006E1FB03569CF0CB
:10022800000F18BF4EF0010EA4F1FF04B6F5007FD1
:1002380064F5407404D25FEA4E0E6D4146EB060643
:1002480042EAC62141EA55514FEAC52040EA5E50CC
:100258004FEACE2EB4F1FD0C88BFBCF5E06F1ED876
:10026800BEF1004F08BF5FEA500E50F1000041EBAD
:10027800045170BD06F0004646EA010140EA02005A
:1002880081EA0301B4EB5C04C2BFD4EB0C0541EA7C
:10029800045170BD41F480114FF0000E013C00F391
:1002A800AB8014F1360FDEBF002001F0004170BDB5
:1002B800C4F10004203C35DA0C341BDC04F11404CE
:1002C800C4F1200500FA05F320FA04F001FA05F25A
:1002D80040EA020001F0004221F0004110EBD37027
:1002E80021FA04F642EB06015EEA430E08BF20EA53
:1002F800D37070BDC4F10C04C4F1200500FA04F3F6
:1003080020FA05F001FA04F240EA020001F0004187
:1003180010EBD37041F100015EEA430E08BF20EAFA
:10032800D37070BDC4F1200500FA05F24EEA020E42
:1003380020FA04F301FA05F243EA020321FA04F071
:1003480001F0004121FA04F220EA020000EBD37028
:100358005EEA430E08BF20EAD37070BD94F0000F28
:100368000FD101F00046400041EB010111F4801F5C
:1003780008BF013CF7D041EA060195F0000F18BF0D
:10038800704703F00046520043EB030313F4801F49
:1003980008BF013DF7D043EA0603704794EA0C0F03
:1003A8000CEA135518BF95EA0C0F0CD050EA410619
:1003B80018BF52EA4306D1D181EA030101F0004196
:1003C8004FF0000070BD50EA410606BF10461946BE
:1003D80052EA430619D094EA0C0F02D150EA0136CA
:1003E80013D195EA0C0F05D152EA03361CBF10460B
:1003F80019460AD181EA030101F0004141F0FE41AA
:1004080041F470014FF0000070BD41F0FE4141F42D
:10041800780170BD70B54FF0FF0C4CF4E06C1CEA2D
:1004280011541DBF1CEA135594EA0C0F95EA0C0FE2
:1004380000F0A7F8A4EB050481EA030E52EA03359D
:100448004FEA013100F088804FEA03334FF08055BE
:1004580045EA131343EA12634FEA022245EA1115EB
:1004680045EA10654FEA00260EF000419D4208BF9C
:10047800964244F1FD0404F5407402D25B084FEA49
:100488003202B61A65EB03055B084FEA32024FF4F5
:1004980080104FF4002CB6EB020E75EB030E22BF52
:1004A800B61A754640EA0C005B084FEA3202B6EB12
:1004B800020E75EB030E22BFB61A754640EA5C00C1
:1004C8005B084FEA3202B6EB020E75EB030E22BF51
:1004D800B61A754640EA9C005B084FEA3202B6EB52
:1004E800020E75EB030E22BFB61A754640EADC0011
:1004F80055EA060E18D04FEA051545EA16754FEA73
:1005080006164FEAC30343EA52734FEAC2025FEA90
:100518001C1CC0D111F4801F0BD141EA00014FF01F
:1005280000004FF0004CB6E711F4801F04BF0143F0
:100538000020B4F1FD0C88BFBCF5E06F3FF6AFAE0C
:10054800B5EB030C04BFB6EB020C5FEA500C50F19C
:10055800000041EB045170BD0EF0004E4EEA11311F
:1005680014EB5C04C2BFD4EB0C0541EA045170BD26
:1005780041F480114FF0000E013C90E645EA060E6A
:100588008DE60CEA135594EA0C0F08BF95EA0C0F98
:100598003FF43BAF94EA0C0F0AD150EA01347FF4E0
:1005A80034AF95EA0C0F7FF425AF104619462CE7B7
:1005B80095EA0C0F06D152EA03353FF4FDAE10461A
:1005C800194622E750EA410618BF52EA43067FF46B
:1005D800C5AE50EA41047FF40DAF52EA43057FF4FB
:1005E800EBAE12E74FF0FF3C06E000BF4FF0010C06
:1005F80002E000BF4FF0010C4DF804CD4FEA410C6A
:100608007FEA6C5C4FEA430C18BF7FEA6C5C1BD036
:1006180001B050EA410C0CBF52EA430C91EA030FB7
:1006280002BF90EA020F0020704710F1000F91EA14
:10063800030F58BF994208BF90422CBFD8176FEAE2
:10064800E37040F0010070474FEA410C7FEA6C5CB0
:1006580002D150EA013C07D14FEA430C7FEA6C5CB7
:10066800D6D152EA033CD3D05DF8040B704700BFE3
:100678008446104662468C461946634600E000BF31
:1006880001B5FFF7B7FF002848BF10F1000F01BD03
:100698004DF808EDFFF7F4FF0CBF012000205DF8CE
:1006A80008FB00BF4DF808EDFFF7EAFF34BF012053
:1006B80000205DF808FB00BF4DF808EDFFF7E0FFEC
:1006C80094BF012000205DF808FB00BF4DF808ED3D
:1006D800FFF7CEFF94BF012000205DF808FB00BFA4
:1006E8004DF808EDFFF7C4FF34BF012000205DF886
:1006F80008FB00BF4FEA410212F5001215D211D5CE
:100708006FF47873B3EB625212D94FEAC12343F006
:10071800004343EA505311F0004F23FA02F018BF88
:10072800404270474FF00000704750EA013005D151
:1007380011F0004008BF6FF0004070474FF0000014
:10074800704700BF53B94AB9002908BF00281CBF29
:100758004FF0FF314FF0FF3000F07AB9ADF1080CDF
:100768006DE904CE00F006F8DDF804E0DDE90223C7
:1007780004B070472DE9F0478C460D460446089EA4
:10078800002B51D18A4217466DD9B2FA82FEBEF1CA
:10079800000F0BD0CEF1200C01FA0EF520FA0CFC5C
:1007A80002FA0EF74CEA050C00FA0EF44FEA174A63
:1007B800250CBCFBFAF81FFA87F90AFB18CC45EAA6
:1007C8000C4508FB09F3AB420AD9ED1908F1FF32D1
:1007D80080F02381AB4240F22081A8F102083D4419
:1007E800ED1AA4B2B5FBFAF00AFB105544EA054429
:1007F80000FB09F9A14509D9E41900F1FF3380F09C
:100808000A81A14540F2078102383C44A4EB09045F
:1008180040EA08400021002E61D024FA0EF400239B
:1008280034607360BDE8F0878B4207D9002E54D03E
:10083800002186E821000846BDE8F087B3FA83F175
:10084800002940F08E80AB4202D3824200F2FA8047
:10085800841A65EB03050120AC46002E3FD086E8DC
:100868001010BDE8F08712B90127B7FBF2F7B7FA05
:1008780087FEBEF1000F34D1EB1B3A0C1FFA87FC40
:100888000121B3FBF2F8250C02FB183345EA0345B6
:100898000CFB08F3AB4207D9ED1908F1FF3002D27F
:1008A800AB4200F2D1808046ED1AA3B2B5FBF2F05C
:1008B80002FB105543EA05440CFB00FCA44507D98C
:1008C800E41900F1FF3302D2A44500F2B8801846BB
:1008D800A4EB0C0440EA08409DE731463046BDE8E9
:1008E800F087CEF1200405FA0EF307FA0EF720FA86
:1008F80004F83A0C25FA04F448EA0308B4FBF2F1C8
:100908004FEA184502FB11441FFA87FC45EA0445E3
:1009180001FB0CF3AB4200FA0EF409D9ED1901F111
:10092800FF3080F08A80AB4240F2878002393D4434
:10093800EB1A1FFA88F5B3FBF2F002FB103345EA15
:10094800034500FB0CF3AB4207D9ED1900F1FF3862
:100958006FD2AB426DD902383D44EB1A40EA0141EF
:100968008FE7C1F1200722FA07F88B4005FA01F456
:1009780048EA030320FA07FE4FEA134CFD404EEA0B
:10098800040EB5FBFCF94FEA1E440CFB19551FFA7F
:1009980083F844EA054509FB08F4AC4202FA01F27F
:1009A80000FA01FA08D9ED1809F1FF3043D2AC4238
:1009B80041D9A9F102091D442D1B1FFA8EFEB5FB72
:1009C800FCF00CFB10554EEA054400FB08F8A04566
:1009D80007D9E41800F1FF3529D2A04527D90238F4
:1009E8001C4440EA0940A4EB0804A0FB02894C45DA
:1009F800C6464D4615D312D056B1BAEB0E0364EB7A
:100A0800050404FA07F7CB401F43CC4037607460F5
:100A18000021BDE8F0871846F8E69046E0E6C245B2
:100A2800EAD2B8EB020E69EB03050138E4E7284681
:100A3800D7E7404691E78146BEE7014678E70238A6
:100A48003C4445E7084608E7A8F102083D442BE77F
:100A5800704700BF80B58CB000AF07F11C030022BF
:100A68001A605A609A60DA601A610023BB61714AA1
:100A7800704B1B6B43F0100313636E4B1B6B03F03F
:100A88001003BB61BB6900237B616A4A694B1B6B1E
:100A980043F004031363674B1B6B03F004037B6190
:100AA8007B6900233B61634A624B1B6B43F0800305
:100AB8001363604B1B6B03F080033B613B690023AE
:100AC800FB605C4A5B4B1B6B43F001031363594BA0
:100AD8001B6B03F00103FB60FB680023BB60554AF6
:100AE800544B1B6B43F002031363524B1B6B03F015
:100AF8000203BB60BB6800237B604E4A4D4B1B6BF7
:100B080043F0080313634B4B1B6B03F008037B6034
:100B18007B6800220821484801F0B8FA0122012127
:100B2800464801F0B3FA00224FF61071444801F02C
:100B3800ADFA0823FB6101233B6200237B6200239B
:100B4800BB6207F11C0319463B4801F005F9012374
:100B5800FB6101233B6200237B620023BB6207F138
:100B68001C031946354801F0F7F80823FB610223F6
:100B78003B6200237B620023BB620523FB6207F113
:100B88001C0319462D4801F0E7F80123FB612D4BA2
:100B98003B6200237B6207F11C0319462A4801F0D7
:100BA800DBF80423FB6100233B6200237B6207F12F
:100BB8001C031946254801F0CFF84FF48063FB6108
:100BC80002233B6200237B620023BB620523FB6296
:100BD80007F11C0319461D4801F0BEF84FF61073C3
:100BE800FB6101233B6200237B620023BB6207F1A8
:100BF8001C031946124801F0AFF82023FB610023BB
:100C08003B6200237B6207F11C0319460C4801F084
:100C1800A3F80223FB610B4B3B6200237B6207F1C5
:100C28001C031946044801F097F800BF3037BD4649
:100C380080BD00BF0038024000100240000802409A
:100C4800000C0240000012100000024000040240A4
:100C580080B500AF124B134A1A60114B124A5A6002
:100C68000F4B00229A600E4B0022DA600C4B4FF4B7
:100C780080421A610A4B00225A61094B00229A618C
:100C8800074B0022DA61064B00221A62044802F080
:100C98001DFF0346002B01D000F000FC00BF80BD03
:100CA800C000002000540040A086010080B58AB032
:100CB80000AF786007F1140300221A605A609A6046
:100CC800DA601A617B681B68194A93422CD10023A9
:100CD8003B61184A174B1B6B43F002031363154B18
:100CE8001B6B03F002033B613B694FF410737B619C
:100CF8001223BB610123FB6100233B6204237B6257
:100D080007F1140319460C4801F026F80023FB608C
:100D1800084A084B1B6C43F400131364054B1B6C07
:100D280003F40013FB60FB6800BF2837BD4680BD95
:100D380000540040003802400004024080B500AF73
:100D4800134B144A1A60124B4FF400725A60104B3E
:100D580000229A600E4B0022DA600D4B4FF40072AD
:100D68001A610B4B0C4A5A61094B00229A61084BD5
:100D78000022DA61064B00221A62054802F0DEFF03
:100D88000346002B01D000F089FB00BF80BD00BFE7
:100D980014010020003C00400077010080B58AB0B3
:100DA80000AF786007F1140300221A605A609A6055
:100DB800DA601A617B681B68284A93424AD100238B
:100DC8003B61274A264B1B6C43F400431364244BB6
:100DD8001B6C03F400433B613B690023FB60204A22
:100DE8001F4B1B6B43F0010313631D4B1B6B03F07D
:100DF8000103FB60FB680023BB60194A184B1B6B9F
:100E080043F004031363164B1B6B03F00403BB602E
:100E1800BB6810237B610223BB610023FB610023B5
:100E28003B6206237B6207F1140319460D4800F064
:100E380093FF4FF4A4537B610223BB610023FB6142
:100E480000233B6206237B6207F114031946064818
:100E580000F082FF00BF2837BD4680BD003C00403F
:100E680000380240000002400008024080B58CB003
:100E780000AF00F0CDFD0023FB6200F0A1F8FFF702
:100E8800E9FDFFF7E5FEFFF759FF00F00FFB00F063
:100E98002DFC00F04BFD08F067FB0021454804F0ED
:100EA8004FFA0421434804F04BFA0821414804F062
:100EB80047FA0C213F4804F043FA00224FF48071AE
:100EC8003D4801F0E3F800224FF400713A4801F080
:100ED800DDF800224FF48061374801F0D7F800228E
:100EE8004FF40061344801F0D1F800224FF48051EA
:100EF800314801F0CBF800224FF400512E4801F0A0
:100F0800C5F800224FF480412B4801F0BFF80022B9
:100F18004FF40041284801F0B9F808F04BFB0023D2
:100F2800FB62F91D64230122244805F088F8034672
:100F3800002BF6D1FB6A002B00DA0733DB101846CA
:100F4800FB6A5A4203F0070302F0070258BF5342F4
:100F5800F979C20007F1300002441344283B0A46DD
:100F68001A70FB6A0133FB62F91D642301221348DE
:100F780004F0CDFFFB6A1F2BD3DD0023FB6297ED46
:100F8800027B97ED046B97ED065B97ED084BB0EE8F
:100F9800443AF0EE643AB0EE452AF0EE652AB0EE37
:100FA800461AF0EE661AB0EE470AF0EE670A00F04D
:100FB80039F9B6E7B4010020000C0240F401002022
:100FC80080B598B000AF07F13003302200211846F1
:100FD80008F036FE07F11C0300221A605A609A6076
:100FE800DA601A6107F10C0300221A605A609A60ED
:100FF800DA600023BB60314A304B1B6C43F08053EE
:1010080013642E4B1B6C03F08053BB60BB6800233A
:101018007B602B4A2A4B1B6843F480431360284BA0
:101028001B6803F480437B607B6801233B634FF4B8
:1010380080337B630223BB644FF48003FB64082383
:101048003B654FF4A8737B650223BB650723FB65EB
:1010580007F13003184603F00FFB0346002B01D0BD
:1010680000F01CFA0F23FB6102233B6200237B6222
:101078004FF4A053BB624FF48053FB6207F11C038B
:101088000521184603F068FD0346002B01D000F047
:1010980005FA0123FB60C0233B6102237B6107F152
:1010A8000C03184603F04AFF0346002B01D000F05A
:1010B800F5F900BF6037BD4680BD00BF003802406B
:1010C8000070004080B584B000AFF86087ED000B79
:1010D800FB68032B00F2A08001A252F823F000BFA6
:1010E800F9100008431100088D110008D7110008F5
:1010F8004FF000024FF00003D7E90001FFF7F0FAC4
:101108000346002B0CD001224FF48071444800F0B4
:10111800BDFF00224FF40071414800F0B7FF7BE0AB
:1011280000224FF480713E4800F0B0FF01224FF4D6
:1011380000713B4800F0AAFF6EE04FF000024FF04C
:101148000003D7E90001FFF7CBFA0346002B0CD0C8
:1011580000224FF48061324800F098FF01224FF4DA
:1011680000612F4800F092FF56E001224FF48061A1
:101178002B4800F08BFF00224FF40061284800F054
:1011880085FF49E04FF000024FF00003D7E9000166
:10119800FFF7A6FA0346002B0CD001224FF480512A
:1011A8001F4800F073FF00224FF400511C4800F064
:1011B8006DFF31E000224FF48051194800F066FFBE
:1011C80001224FF40051164800F060FF24E04FF070
:1011D80000024FF00003D7E90001FFF781FA034648
:1011E800002B0CD000224FF480410D4800F04EFF38
:1011F80001224FF400410A4800F048FF0BE00122A9
:101208004FF48041064800F041FF00224FF40041AE
:10121800034800F03BFF00BF00BF1037BD4680BD4C
:10122800000C024090B58DB000AF87ED060B87ED3E
:10123800041B87ED022B87ED003B4FF000024FF0B7
:101248000003D7E90601FFF723FA0346002B0CD069
:1012580000224FF480718D4800F018FF00224FF4EF
:1012680000718A4800F012FF30E097ED060B00206D
:10127800FFF728FF4FF000024FF00003D7E90601FF
:10128800FFF710FA0346002B05D0BB69BB61FB6969
:1012980083F00043FB614FF000027D4BD7E9060164
:1012A800FFF7B8F803460C46184621464FF00002EF
:1012B800784BFEF785FF03460C4618462146FFF794
:1012C80019FA0346FB62744AFB6A53634FF0000243
:1012D8004FF00003D7E90401FFF7DAF90346002BC2
:1012E8000CD000224FF48061684800F0CFFE002245
:1012F8004FF40061654800F0C9FE30E097ED040B3B
:101308000120FFF7DFFE4FF000024FF00003D7E99E
:101318000401FFF7C7F90346002B05D03B693B6181
:101328007B6983F000437B614FF00002584BD7E99B
:101338000401FFF76FF803460C46184621464FF0A4
:101348000002544BFEF73CFF03460C461846214664
:10135800FFF7D0F90346BB624F4ABB6A93634FF06D
:1013680000024FF00003D7E90201FFF791F90346A5
:10137800002B0CD000224FF48051444800F086FE28
:1013880000224FF40051414800F080FE30E097ED14
:10139800020B0220FFF796FE4FF000024FF0000309
:1013A800D7E90201FFF77EF90346002B05D0BB6899
:1013B800BB60FB6883F00043FB604FF00002344BD6
:1013C800D7E90201FFF726F803460C4618462146DE
:1013D8004FF000022F4BFEF7F3FE03460C4618466B
:1013E8002146FFF787F903467B622B4A7B6AD36362
:1013F8004FF000024FF00003D7E90001FFF748F96A
:101408000346002B0CD000224FF480411F4800F007
:101418003DFE00224FF400411C4800F037FE30E04A
:1014280097ED000B0320FFF74DFE4FF000024FF041
:101438000003D7E90001FFF735F90346002B05D073
:101448003B683B607B6883F000437B604FF00002A1
:101458000F4BD7E90001FEF7DDFF03460C4618469F
:1014680021464FF000020B4BFEF7AAFE03460C463E
:1014780018462146FFF73EF903463B62064A3B6A97
:10148800136400BF3437BD4690BD00BF000C024056
:101498000000204000407F400000014080B400AFC1
:1014A80000BFBD465DF8047B7047000080B500AF03
:1014B800174B184A1A60164B4FF482725A60144B35
:1014C80000229A60124B0022DA60114B00221A6146
:1014D8000F4B00225A610E4B4FF400729A610C4B6D
:1014E8000022DA610A4B00221A62094B00225A6272
:1014F800074B00229A62064B0A22DA62044803F07C
:101508005BFE0346002B01D0FFF7C8FF00BF80BD7C
:101518005C0100200030014080B58AB000AF7860DF
:1015280007F1140300221A605A609A60DA601A619F
:101538007B681B68194A93422BD100233B61184AE8
:10154800174B5B6C43F480535364154B5B6C03F48B
:1015580080533B613B690023FB60114A104B1B6BB6
:1015680043F0010313630E4B1B6B03F00103FB6095
:10157800FB68E0237B610223BB610023FB6100233E
:101588003B6205237B6207F114031946054800F006
:10159800E3FB00BF2837BD4680BD00BF00300140D7
:1015A800003802400000024080B582B000AF00233E
:1015B8007B60104A0F4B5B6C43F4804353640D4BC4
:1015C8005B6C03F480437B607B6800233B60094AC3
:1015D800084B1B6C43F080531364064B1B6C03F0E1
:1015E80080533B603B68072000F074FB00BF08375E
:1015F800BD4680BD0038024080B400AF00BFBD4684
:101608005DF8047B704780B400AFFEE780B400AF9C
:10161800FEE780B400AFFEE780B400AFFEE780B419
:1016280000AF00BFBD465DF8047B704780B400AFD3
:1016380000BFBD465DF8047B704780B400AF00BFB3
:10164800BD465DF8047B704780B500AF00F032FA04
:1016580000BF80BD80B500AF024800F0BFFF00BFEB
:1016680080BD00BF1006002080B584B000AF786050
:10167800114B1B68002B02D10F4B104A1A600E4BFE
:101688001B68FB600C4B1A687B6813446A469342DC
:1016980007D908F09BFA02460C2313604FF0FF337A
:1016A80006E0054B1A687B681344034A1360FB681D
:1016B80018461037BD4680BDAC000020D808002071
:1016C80080B400AF084A084BD3F8883043F470035D
:1016D800C2F88830044B4FF000629A6000BFBD46E4
:1016E8005DF8047B704700BF00ED00E080B596B060
:1016F80000AF07F1480300221A605A609A60DA6066
:1017080007F1400300221A605A6007F124030022FF
:101718001A605A609A60DA601A615A619A613B1DD0
:1017280020220021184608F08BFA504B504A1A60C4
:101738004E4BA7225A604D4B00229A604B4B40F209
:10174800E732DA60494B00221A61484B00225A619D
:10175800464B00229A61454803F091FD0346002B51
:1017680001D0FFF79BFE4FF48053BB6407F1480399
:1017780019463E4803F0E8FE0346002B01D0FFF768
:101788008DFE3A4803F0A6FD0346002B01D0FFF773
:1017980085FE00233B6400237B6407F14003194660
:1017A800324804F099FA0346002B01D0FFF776FE81
:1017B80060237B620023BB620023FB6200233B6340
:1017C80000237B630023BB630023FB6307F124032F
:1017D80000221946254803F0F1FD0346002B01D0ED
:1017E800FFF75CFE07F12403042219461F4803F0A3
:1017F800E5FD0346002B01D0FFF750FE07F1240357
:1018080008221946194803F0D9FD0346002B01D0D8
:10181800FFF744FE07F124030C221946134803F08E
:10182800CDFD0346002B01D0FFF738FE00237B6077
:101838000023BB600023FB6000233B6100237B6126
:101848004FF40053BB6100233B623B1D1946074818
:1018580004F0BEFA0346002B01D0FFF71FFE034831
:1018680000F02AF800BF5837BD4680BDB4010020FB
:101878000000014080B485B000AF78607B681B68C9
:101888000B4A93420DD10023FB600A4A094B5B6C5B
:1018980043F001035364074B5B6C03F00103FB60E7
:1018A800FB6800BF1437BD465DF8047B704700BF76
:1018B800000001400038024080B588B000AF786071
:1018C80007F10C0300221A605A609A60DA601A6104
:1018D8007B681B68124A93421ED10023BB60114AE1
:1018E800104B1B6B43F0100313630E4B1B6B03F081
:1018F8001003BB60BB684FF4D443FB6002233B6119
:1019080000237B610023BB610123FB6107F10C030A
:101918001946054800F020FA00BF2037BD4680BDB3
:1019280000000140003802400010024080B500AFBE
:10193800114B124A1A60104B4FF4E1325A600E4BA9
:1019480000229A600C4B0022DA600B4B00221A61CD
:10195800094B0C225A61084B00229A61064B00225F
:10196800DA61054804F086FA0346002B01D0FFF738
:1019780095FD00BF80BD00BFF40100200044004079
:1019880080B58AB000AF786007F1140300221A60AE
:101998005A609A60DA601A617B681B68194A934238
:1019A8002BD100233B61184A174B1B6C43F40033BF
:1019B8001364154B1B6C03F400333B613B69002334
:1019C800FB60114A104B1B6B43F0010313630E4B72
:1019D8001B6B03F00103FB60FB680C237B61022394
:1019E800BB610023FB6103233B6207237B6207F192
:1019F80014031946054800F0AFF900BF2837BD4663
:101A080080BD00BF00440040003802400000024092
:101A180080B500AF0E4A0E4B1B6843F40073136089
:101A28000B4A0B4B1B6843F480631360084A084B4E
:101A38001B6843F480731360032000F04BF9002007
:101A480000F008F8FFF7B0FD0023184680BD00BF7E
:101A5800003C024080B582B000AF7860124B1A6833
:101A6800124B1B7819464FF47A73B3FBF1F3B2FBB0
:101A7800F3F3184600F063F90346002B01D0012365
:101A88000EE07B680F2B0AD8002279684FF0FF30F0
:101A980000F02BF9064A7B681360002300E001235D
:101AA80018460837BD4680BD000000200800002009
:101AB8000400002080B400AF064B1B781A46064B82
:101AC8001B681344044A136000BFBD465DF8047BDD
:101AD800704700BF080000203402002080B400AF27
:101AE800034B1B681846BD465DF8047B704700BF72
:101AF8003402002080B584B000AF7860FFF7EEFFB5
:101B0800B8607B68FB60FB68B3F1FF3F05D0094B09
:101B18001B781A46FB681344FB6000BFFFF7DEFF23
:101B28000246BB68D21AFB689A42F7D300BF103747
:101B3800BD4680BD0800002080B485B000AF786045
:101B48007B6803F00703FB600C4BDB68BB60BA687B
:101B58004FF6FF031340BB60FB681A02BB681343D0
:101B680043F0BF6343F40033BB60044ABB68D360EF
:101B780000BF1437BD465DF8047B704700ED00E0F8
:101B880080B400AF044BDB681B0A03F00703184658
:101B9800BD465DF8047B704700ED00E080B483B07B
:101BA80000AF0346FB7197F90730002B0BDB09499F
:101BB80097F907305B09FA7902F01F02012000FA51
:101BC80002F241F8232000BF0C37BD465DF8047BC4
:101BD800704700BF00E100E080B483B000AF034667
:101BE8003960FB7197F90730002B0ADB0D4997F92B
:101BF80007303A68D2B21201D2B20B4483F80023FC
:101C08000AE00949FB7903F00F03043B3A68D2B2B2
:101C18001201D2B20B441A7600BF0C37BD465DF8EC
:101C2800047B704700E100E000ED00E080B489B07B
:101C380000AFF860B9607A60FB6803F00703FB61E6
:101C4800FB69C3F10703042B28BF0423BB61FB69AD
:101C58000433062B02D9FB69033B00E000237B61B8
:101C68000122BB6902FA03F35A1EBB681A407B695A
:101C78009A4001217B6901FA03F3591E7B680B40E6
:101C8800134318462437BD465DF8047B70470000AF
:101C980080B582B000AF78607B68013BB3F1807F8C
:101CA80001D301230FE00A4A7B68013B53600F21EF
:101CB8004FF0FF30FFF790FF054B00229A60044B6E
:101CC80007221A60002318460837BD4680BD00BFAA
:101CD80010E000E080B582B000AF78607868FFF768
:101CE8002BFF00BF0837BD4680BD80B586B000AF6A
:101CF8000346B9607A60FB7300237B61FFF740FFFE
:101D080078617A68B9687869FFF790FF024697F9B1
:101D18000F3011461846FFF75FFF00BF1837BD4662
:101D280080BD80B582B000AF0346FB7197F90730DC
:101D38001846FFF733FF00BF0837BD4680BD80B5A2
:101D480082B000AF78607868FFF7A2FF03461846B4
:101D58000837BD4680BD000080B489B000AF786008
:101D6800396000237B6100233B610023BB610023B2
:101D7800FB616BE10122FB6902FA03F37B613B68BB
:101D88001A687B6913403B613A697B699A4240F063
:101D98005A813B685B68012B0BD03B685B68022B60
:101DA80007D03B685B68112B03D03B685B68122B3C
:101DB80030D17B689B68BB61FB695B00032202FA38
:101DC80003F3DB43BA691340BB613B68DA68FB691C
:101DD8005B0002FA03F3BA691343BB617B68BA6913
:101DE8009A607B685B68BB610122FB6902FA03F3B6
:101DF800DB43BA691340BB613B685B681B0903F0AE
:101E08000102FB6902FA03F3BA691343BB617B68F9
:101E1800BA695A607B68DB68BB61FB695B000322B7
:101E280002FA03F3DB43BA691340BB613B689A6863
:101E3800FB695B0002FA03F3BA691343BB617B6871
:101E4800BA69DA603B685B68022B03D03B685B6861
:101E5800122B23D1FB69DA087B68083253F8223049
:101E6800BB61FB6903F007039B000F2202FA03F32F
:101E7800DB43BA691340BB613B681A69FB6903F02D
:101E880007039B0002FA03F3BA691343BB61FB69BA
:101E9800DA087B680832B96943F822107B681B6846
:101EA800BB61FB695B00032202FA03F3DB43BA69F7
:101EB8001340BB613B685B6803F00302FB695B008E
:101EC80002FA03F3BA691343BB617B68BA691A6003
:101ED8003B685B6803F08053002B00F0B48000235C
:101EE800FB605F4A5E4B5B6C43F4804353645C4B1E
:101EF8005B6C03F48043FB60FB685A4AFB699B08F0
:101F0800023352F82330BB61FB6903F003039B00E3
:101F18000F2202FA03F3DB43BA691340BB617B6803
:101F2800514A93422BD07B68504A934225D07B6814
:101F38004F4A93421FD07B684E4A934219D07B6820
:101F48004D4A934213D07B684C4A93420DD07B682C
:101F58004B4A934207D07B684A4A934201D10723F0
:101F68000EE008230CE006230AE0052308E004231A
:101F780006E0032304E0022302E0012300E000233B
:101F8800FA6902F0030292009340BA691343BB61F5
:101F98003449FB699B080233BA6941F823203A4B5C
:101FA8001B68BB613B69DB43BA691340BB613B6893
:101FB8005B6803F48033002B03D0BA693B69134391
:101FC800BB61314ABB6913602F4B5B68BB613B69DE
:101FD800DB43BA691340BB613B685B6803F40033B9
:101FE800002B03D0BA693B691343BB61264ABB691E
:101FF8005360254B9B68BB613B69DB43BA6913405F
:10200800BB613B685B6803F48013002B03D0BA699B
:102018003B691343BB611C4ABB6993601A4BDB687D
:10202800BB613B69DB43BA691340BB613B685B68D2
:1020380003F40013002B03D0BA693B691343BB6157
:10204800114ABB69D360FB690133FB61FB690F2B44
:102058007FF690AE00BF2437BD465DF8047B70471D
:1020680000380240003801400000024000040240ED
:1020780000080240000C0240001002400014024018
:1020880000180240001C0240003C014080B483B0AC
:1020980000AF78600B467B8013467B707B78002B03
:1020A80003D07A887B689A6103E07B881A047B688E
:1020B8009A6100BF0C37BD465DF8047B7047F0B5E8
:1020C8008FB00AAF78607B68002B01D1012354E000
:1020D8007B681B68FB607B6893F8B932DBB2002B26
:1020E80006D17B68002283F8B822786807F09AFA4C
:1020F8007B68032283F8B922FB68DB6B03F48073E7
:10210800002B02D17B6800221A617B681B68184685
:1021180004F036FC7B681B683B607E686D4606F100
:1021280010040FCC0FC50FCC0FC594E8030085E849
:102138000300331D0ECB386804F0B0FB7B681B68C6
:102148000121184604F02DFC7B681B683B607E6803
:102158006D4606F110040FCC0FC50FCC0FC594E8DF
:10216800030085E80300331D0ECB386804F040FDFA
:102178007B68012283F8B922002318461437BD462C
:10218800F0BD90B589B004AF7860084611461A468C
:102198000346FB700B46BB7013467B707B6893F855
:1021A800B832012B01D102237FE07B68012283F83A
:1021B800B822FA78796813469B001344DB000B4475
:1021C8003D3300221A70FA78796813469B0013444D
:1021D800DB000B4438337A781A70FA78796813463A
:1021E8009B001344DB000B4440333A8D1A80FA7885
:1021F800796813469B001344DB000B443933FA78A3
:102208001A70FA78796813469B001344DB000B4474
:102218003F3397F824201A70FA78BB7803F07F03CD
:10222800D8B2796813469B001344DB000B443A3359
:1022380002461A7097F90230002B0ADAFA787968A0
:1022480013469B001344DB000B443B3301221A70F6
:1022580009E0FA78796813469B001344DB000B44C5
:102268003B3300221A70FA78796813469B001344AE
:10227800DB000B443C3397F820201A707B68186801
:102288007C78BA78F9783B8D029397F824300193DB
:1022980097F820300093234604F034FE0346FB737E
:1022A8007B68002283F8B822FB7B18461437BD46AA
:1022B80090BD80B584B000AF78600B46FB700023FA
:1022C800FB737B6893F8B832012B01D102230FE02E
:1022D8007B68012283F8B8227B681B68FA7811466C
:1022E800184605F07CF87B68002283F8B822FB7B4F
:1022F80018461037BD4680BD80B582B000AF786003
:10230800084611461A460346FB700B46BB70134637
:102318007B70FA78796813469B001344DB000B4402
:102328003B33BA781A70FA78796813469B001344DD
:10233800DB000B443F337A781A703B7C002B14D1B6
:10234800FA78796813469B001344DB000B44423348
:1023580003221A70FA78796813469B001344DB004D
:102368000B443D333A7F1A7009E0FA7879681346CE
:102378009B001344DB000B44423302221A707B7823
:10238800032B00F2D68001A252F823F0A5230008FF
:1023980025250008112400089B2400083B7C012BFC
:1023A80040F0C980BB78002B40F0C5803B8B002BE8
:1023B80009D1FA78796813469B001344DB000B4473
:1023C800513301221A70FA78796813469B00134436
:1023D800DB000B4451331B78002B0AD1FA7879685B
:1023E80013469B001344DB000B44423300221A704F
:1023F800A1E0FA78796813469B001344DB000B448C
:10240800423302221A7096E0BB78002B20D1FA786A
:10241800796813469B001344DB000B4451331B7847
:10242800002B0AD1FA78796813469B001344DB0025
:102438000B44423300221A707EE0FA78796813461A
:102448009B001344DB000B44423302221A7073E0F2
:10245800FA78796813469B001344DB000B44503329
:102468001B78002B0AD1FA78796813469B0013442D
:10247800DB000B44423300221A705DE0FA78796879
:1024880013469B001344DB000B44423302221A70AC
:1024980052E0BB78002B20D1FA78796813469B006C
:1024A8001344DB000B4451331B78002B0AD1FA7814
:1024B800796813469B001344DB000B444233002227
:1024C8001A7039E0FA78796813469B001344DB00E8
:1024D8000B44423302221A702EE0FA7879681346C8
:1024E8009B001344DB000B4450331B78002B0AD1AC
:1024F800FA78796813469B001344DB000B44423397
:1025080000221A7018E0FA78796813469B00134481
:10251800DB000B44423302221A700DE0FA78796826
:1025280013469B001344DB000B44423300221A700D
:1025380002E000BF00E000BFFA78796813469B000C
:102548001344DB000B4444337A691A60FA78398BF8
:10255800786813469B001344DB0003444833196032
:10256800FA78796813469B001344DB000B445C330C
:1025780000221A70FA78796813469B001344DB002E
:102588000B444C3300221A60FA78796813469B0092
:102598001344DB000B443933FA781A70FA787968F7
:1025A80013469B001344DB000B445D3300221A7072
:1025B8007B681868FA7813469B001344DB003833AD
:1025C8007A68D1187B681B69DBB21A4604F0ACFD47
:1025D800034618460837BD4680BD00BF80B586B0A3
:1025E80000AF78607B681B683B613B69FB607B6878
:1025F8001B68184604F0B9FA0346012B40F0EF8037
:102608007B681B68184604F09DFA0346002B00F00F
:10261800E5807B681B68184604F094FA034603F4C7
:102628000013B3F5001F04D17B681B684FF4001238
:102638005A617B681B68184604F084FA034603F461
:102648008013B3F5801F04D17B681B684FF4801298
:102658005A617B681B68184604F074FA034603F055
:102668008063B3F1806F04D17B681B684FF0806290
:102678005A617B681B68184604F064FA034603F045
:102688000203022B03D17B681B6802225A617B6814
:102698001B68184604F056FA034603F00053B3F1DA
:1026A800005F15D17B681B684FF000525A61FB68C8
:1026B80003F588631B6803F00103002B08D17868D1
:1026C80007F02EF87B681B680121184604F04EFBC2
:1026D8007B681B68184604F035FA034603F08073DC
:1026E800B3F1807F02D1786801F07CF97B681B68C0
:1026F800184604F027FA034603F00803082B06D10E
:10270800786806F0F1FF7B681B6808225A617B68CD
:102718001B68184604F016FA034603F00073B3F179
:10272800007F38D17B681B68184604F047FEB86004
:1027380000237B6125E07B6903F00F03BA6822FA66
:1027480003F303F00103002B18D07B695A01FB68DF
:10275800134403F5A0631B6803F40043B3F5004F6B
:1027680006D17B69DBB21946786800F0CFF805E03E
:102778007B69DBB21946786800F008FD7B69013394
:102788007B617B689A687B699A42D4D87B681B68AE
:102798004FF000725A617B681B68184604F0D2F942
:1027A800034603F01003102B01D1012300E000239E
:1027B800002B14D07B681B687A681268926922F033
:1027C80010029A61786801F061F87B681B687A6882
:1027D8001268926942F010029A6100E000BF18374F
:1027E800BD4680BD80B582B000AF78607B6893F845
:1027F800B832012B01D1022313E07B68012283F850
:10280800B8227B681B68184604F0A9F87B681B6827
:102818000121184604F012FB7B68002283F8B822D5
:10282800002318460837BD4680BD80B582B000AF8A
:1028380078607B6893F8B832012B01D102230DE050
:102848007B68012283F8B8227B681B68184604F06D
:102858000BFF7B68002283F8B8220023184608374C
:10286800BD4680BD80B582B000AF78607B681B68CC
:10287800184604F0B7FA034618460837BD4680BD27
:1028880080B483B000AF78600B46FB70FA78796843
:1028980013469B001344DB000B445C331B7818463B
:1028A8000C37BD465DF8047B704780B483B000AF39
:1028B80078600B46FB70FA78796813469B001344DE
:1028C800DB000B444C331B6818460C37BD465DF8DB
:1028D800047B704780B582B000AF78607B681B6866
:1028E800184604F0FDFA034618460837BD4680BD71
:1028F80080B582B000AF78607B681B68184604F02A
:10290800D8FA034618460837BD4680BD80B586B05C
:1029180000AF78600B46FB707B681B687B617B6946
:102928003B61FB78FB60FB685A013B69134403F584
:10293800A0639B6803F00403042B1AD1FB685A01B7
:102948003B69134403F5A0631A4604239360FB68AC
:102958005A013B69134403F5A0631946FB685A0101
:102968003B69134403F5A063DB6843F00203CB60C3
:10297800D1E0FB685A013B69134403F5A0639B68E7
:1029880003F48073B3F5807F2DD1FB685A013B694E
:10299800134403F5A0631A464FF480739360796873
:1029A800FA6813469B001344DB000B445D3307228F
:1029B8001A70FB685A013B69134403F5A063194672
:1029C800FB685A013B69134403F5A063DB6843F0D5
:1029D8000203CB607B681B68FA68D2B211461846BE
:1029E80004F0FDFC97E0FB685A013B69134403F5CA
:1029F800A0639B6803F02003202B09D1FB685A01D0
:102A08003B69134403F5A0631A462023936082E0D0
:102A1800FB685A013B69134403F5A0639B6803F004
:102A28000803082B35D1FB685A013B69134403F5A9
:102A3800A0631946FB685A013B69134403F5A06378
:102A4800DB6843F00203CB607968FA6813469B00A1
:102A58001344DB000B445D3305221A70FB685A01EE
:102A68003B69134403F5A0631A4610239360FB687F
:102A78005A013B69134403F5A0631A46082393607F
:102A88007B681B68FA68D2B21146184604F0A7FCA6
:102A980041E0FB685A013B69134403F5A0639B6856
:102AA80003F48063B3F5806F35D1FB685A013B6945
:102AB800134403F5A0631946FB685A013B691344A4
:102AC80003F5A063DB6843F00203CB607B681B68F7
:102AD800FA68D2B21146184604F081FCFB685A0124
:102AE8003B69134403F5A0631A4610239360796881
:102AF800FA6813469B001344DB000B445D3308223D
:102B08001A70FB685A013B69134403F5A0631A461F
:102B18004FF480639360FB685A013B69134403F5E3
:102B2800A0639B6803F40073B3F5007F23D1FB68AF
:102B38005A013B69134403F5A0631946FB685A011F
:102B48003B69134403F5A063DB6843F00203CB60E1
:102B58007B681B68FA68D2B21146184604F03FFC3D
:102B6800FB685A013B69134403F5A0631A464FF406
:102B78000073936006E3FB685A013B69134403F54D
:102B8800A0639B6803F00103012B40F0FF807B6882
:102B98001B69002B1BD07968FA6813469B00134405
:102BA800DB000B4448331A68FB6859013B690B4446
:102BB80003F5A0631B69C3F31203D11A7868FA6896
:102BC80013469B001344DB0003444C3319607968B7
:102BD800FA6813469B001344DB000B445D33012263
:102BE8001A707968FA6813469B001344DB000B449B
:102BF800583300221A60FB685A013B69134403F5F5
:102C0800A0631A46012393607968FA6813469B000B
:102C18001344DB000B443F331B78002B0AD0796840
:102C2800FA6813469B001344DB000B443F331B78C0
:102C3800022B22D1FB685A013B69134403F5A063B8
:102C48001946FB685A013B69134403F5A063DB6826
:102C580043F00203CB607B681B68FA68D2B2114666
:102C6800184604F0BCFBFB685A013B69134403F5A2
:102C7800A0631A461023936071E07968FA681346D6
:102C88009B001344DB000B443F331B78032B2BD1F1
:102C9800FB685A013B69134403F5A0631946FB68B6
:102CA8005A013B69134403F5A0631B6843F00053C2
:102CB8000B607968FA6813469B001344DB000B44E9
:102CC8005C3301221A70FB68D8B27968FA68134637
:102CD8009B001344DB000B445C331B781A46014607
:102CE800786806F02BFD3AE07968FA6813469B008D
:102CF8001344DB000B443F331B78012B2FD1796839
:102D0800FA6813469B001344DB000B445C33012232
:102D18001A707968FA6813469B001344DB000B4469
:102D280050331B7883F00103D8B27968FA681346E8
:102D38009B001344DB000B44503302461A70FB68B7
:102D4800D8B27968FA6813469B001344DB000B4439
:102D58005C331B781A460146786806F0EFFC796800
:102D6800FA6813469B001344DB000B4450331B786E
:102D780083F00103D8B27968FA6813469B001344BC
:102D8800DB000B44503302461A70FBE1FB685A0122
:102D98003B69134403F5A0639B6803F00203022B0D
:102DA80040F01B81FB685A013B69134403F5A0639B
:102DB8001946FB685A013B69134403F5A063DB68B5
:102DC80023F00203CB607968FA6813469B0013442A
:102DD800DB000B445D331B78012B0AD17968FA6854
:102DE80013469B001344DB000B445C3301221A702A
:102DF800D9E07968FA6813469B001344DB000B445A
:102E08005D331B78052B0AD17968FA6813469B0055
:102E18001344DB000B445C3305221A70C3E0796865
:102E2800FA6813469B001344DB000B445D331B78A0
:102E3800062B0AD07968FA6813469B001344DB0016
:102E48000B445D331B78082B56D17968FA68134612
:102E58009B001344DB000B4458331B68591C7868EB
:102E6800FA6813469B001344DB0003445833196087
:102E78007968FA6813469B001344DB000B44583307
:102E88001B68032B14D97968FA6813469B0013440E
:102E9800DB000B44583300221A607968FA6813463D
:102EA8009B001344DB000B445C3304221A7009E0D6
:102EB8007968FA6813469B001344DB000B445C33C3
:102EC80002221A70FB685A013B69134403F5A06398
:102ED8001B68BB60BB6823F08043BB60BB6843F0E2
:102EE8000043BB60FB685A013B69134403F5A063C8
:102EF8001A46BB68136056E07968FA6813469B0067
:102F08001344DB000B445D331B78032B23D1796812
:102F1800FA6813469B001344DB000B445C3302221F
:102F28001A70FB685A013B69134403F5A0631B68D8
:102F3800BB60BB6823F08043BB60BB6843F00043C1
:102F4800BB60FB685A013B69134403F5A0631A464A
:102F5800BB68136027E07968FA6813469B0013443E
:102F6800DB000B445D331B78072B1CD17968FA68AA
:102F780013469B001344DB000B4458331B68591C51
:102F88007868FA6813469B001344DB0003445833FF
:102F980019607968FA6813469B001344DB000B44F8
:102FA8005C3304221A70FB685A013B69134403F529
:102FB800A0631A4602239360FB68D8B27968FA685E
:102FC80013469B001344DB000B445C331B781A4602
:102FD8000146786806F0B2FBD4E0FB685A013B6909
:102FE800134403F5A0639B6803F08003802B3FD153
:102FF800FB685A013B69134403F5A0631946FB6853
:103008005A013B69134403F5A063DB6843F00203EC
:10301800CB607968FA6813469B001344DB000B44C5
:1030280058331B68591C7868FA6813469B00134488
:10303800DB000344583319607968FA6813469B002B
:103048001344DB000B445D3306221A707B681B684F
:10305800FA68D2B21146184604F0C1F9FB685A0161
:103068003B69134403F5A0631A468023936089E003
:10307800FB685A013B69134403F5A0639B6803F09E
:103088001003102B7ED17968FA6813469B0013440D
:10309800DB000B443F331B78032B23D17968FA6894
:1030A80013469B001344DB000B44583300221A607C
:1030B800FB685A013B69134403F5A0631946FB6892
:1030C8005A013B69134403F5A063DB6843F002032C
:1030D800CB607B681B68FA68D2B21146184604F0C8
:1030E8007EF946E07968FA6813469B001344DB00D2
:1030F8000B443F331B78002B0AD07968FA681346D3
:103108009B001344DB000B443F331B78022B30D168
:103118007968FA6813469B001344DB000B44583364
:1031280000221A607B681B69002B22D17968FA6833
:1031380013469B001344DB000B445D3303221A70D3
:10314800FB685A013B69134403F5A0631946FB6801
:103158005A013B69134403F5A063DB6843F002039B
:10316800CB607B681B68FA68D2B21146184604F037
:1031780036F9FB685A013B69134403F5A0631A4604
:103188001023936000BF1837BD4680BD80B586B058
:1031980000AF78600B46FB707B681B687B617B69BE
:1031A8003B61FB78FB60FB685A013B69134403F5FC
:1031B800A0639B6803F00403042B1AD1FB685A012F
:1031C8003B69134403F5A0631A4604239360FB6824
:1031D8005A013B69134403F5A0631946FB685A0179
:1031E8003B69134403F5A063DB6843F00203CB603B
:1031F80047E3FB685A013B69134403F5A0639B68E6
:1032080003F02003202B42D1FB685A013B69134489
:1032180003F5A0631A46202393607968FA68134679
:103228009B001344DB000B443D331B78012B40F01B
:1032380028837968FA6813469B001344DB000B4423
:103248003D3300221A707968FA6813469B001344CC
:10325800DB000B445C3302221A70FB685A013B699D
:10326800134403F5A0631946FB685A013B691344EC
:1032780003F5A063DB6843F00203CB607B681B683F
:10328800FA68D2B21146184604F0A9F8F9E2FB68C8
:103298005A013B69134403F5A0639B6803F040039C
:1032A800402B40D17968FA6813469B001344DB0031
:1032B8000B445D3304221A707968FA6813469B0040
:1032C8001344DB000B443D3301221A707968FA6815
:1032D80013469B001344DB000B44583300221A604A
:1032E800FB685A013B69134403F5A0631946FB6860
:1032F8005A013B69134403F5A063DB6843F00203FA
:10330800CB607B681B68FA68D2B21146184604F095
:1033180066F8FB685A013B69134403F5A0631A4633
:1033280040239360ADE2FB685A013B69134403F5FF
:10333800A0639B6803F40073B3F5007F23D1FB6897
:103348005A013B69134403F5A0631946FB685A0107
:103358003B69134403F5A063DB6843F00203CB60C9
:103368007B681B68FA68D2B21146184604F037F831
:10337800FB685A013B69134403F5A0631A464FF4EE
:10338800007393607DE2FB685A013B69134403F5BF
:10339800A0639B6803F00103012B36D17968FA68B2
:1033A80013469B001344DB000B44583300221A6079
:1033B800FB685A013B69134403F5A0631946FB688F
:1033C8005A013B69134403F5A063DB6843F0020329
:1033D800CB607B681B68FA68D2B21146184603F0C6
:1033E800FEFFFB685A013B69134403F5A0631A46C4
:1033F800012393607968FA6813469B001344DB0045
:103408000B445D3301221A703BE2FB685A013B69A9
:10341800134403F5A0639B6803F00803082B2CD121
:10342800FB685A013B69134403F5A0631A46082355
:103438009360FB685A013B69134403F5A06319467E
:10344800FB685A013B69134403F5A063DB6843F04A
:103458000203CB607B681B68FA68D2B21146184633
:1034680003F0BDFF7968FA6813469B001344DB003C
:103478000B445D3305221A7003E2FB685A013B696D
:10348800134403F5A0639B6803F01003102B56D177
:103498007968FA6813469B001344DB000B445833E1
:1034A80000221A607968FA6813469B001344DB000F
:1034B8000B445D3303221A707968FA6813469B003F
:1034C8001344DB000B443D331B78002B14D179687F
:1034D800FA6813469B001344DB000B443C331B780B
:1034E800002B09D17968FA6813469B001344DB0066
:1034F8000B443D3301221A70FB685A013B6913449F
:1035080003F5A0631946FB685A013B69134403F5A8
:10351800A063DB6843F00203CB607B681B68FA6832
:10352800D2B21146184603F05AFFFB685A013B69AC
:10353800134403F5A0631A4610239360A1E1FB68C6
:103548005A013B69134403F5A0639B6803F08003A9
:10355800802B2CD1FB685A013B69134403F5A06307
:103568001946FB685A013B69134403F5A063DB68FD
:1035780043F00203CB607B681B68FA68D2B211463D
:10358800184603F02CFF7968FA6813469B00134429
:10359800DB000B445D3306221A70FB685A013B6955
:1035A800134403F5A0631A468023936069E1FB681E
:1035B8005A013B69134403F5A0639B6803F48063D5
:1035C800B3F5806F36D1FB685A013B69134403F5A4
:1035D800A0631946FB685A013B69134403F5A063CD
:1035E800DB6843F00203CB607B681B68FA68D2B2E1
:1035F8001146184603F0F3FEFB685A013B69134471
:1036080003F5A0631A4610239360FB685A013B69CF
:10361800134403F5A0631A464FF4806393607968F6
:10362800FA6813469B001344DB000B445D33082201
:103638001A7026E1FB685A013B69134403F5A0633D
:103648009B6803F00203022B40F01B81FB685A01C0
:103658003B69134403F5A0631946FB685A013B69AB
:10366800134403F5A063DB6823F00203CB60796899
:10367800FA6813469B001344DB000B445D331B7848
:10368800012B37D17968FA6813469B001344DB0095
:103698000B445C3301221A707968FA6813469B0060
:1036A8001344DB000B443F331B78022B0BD07968A3
:1036B800FA6813469B001344DB000B443F331B7826
:1036C800032B40F0C5807968FA6813469B001344C1
:1036D800DB000B4451331B7883F00103D8B27968BF
:1036E800FA6813469B001344DB000B44513302462F
:1036F8001A70ADE07968FA6813469B001344DB0042
:103708000B445D331B78032B0AD17968FA6813469A
:103718009B001344DB000B445C3302221A7097E0D1
:103728007968FA6813469B001344DB000B445D3349
:103738001B78042B0AD17968FA6813469B00134456
:10374800DB000B445C3302221A7081E07968FA6866
:1037580013469B001344DB000B445D331B78052B99
:103768000AD17968FA6813469B001344DB000B44BE
:103778005C3305221A706BE07968FA6813469B007F
:103788001344DB000B445D331B78062B0AD07968A1
:10379800FA6813469B001344DB000B445D331B7827
:1037A800082B55D17968FA6813469B001344DB004F
:1037B8000B4458331B68591C7868FA6813469B00F9
:1037C8001344DB000344583319607968FA681346D8
:1037D8009B001344DB000B4458331B68032B14D99C
:1037E8007968FA6813469B001344DB000B4458338E
:1037F80000221A607968FA6813469B001344DB00BC
:103808000B445C3304221A7009E07968FA6813469D
:103818009B001344DB000B445C3302221A70FB68E4
:103828005A013B69134403F5A0631B68BB60BB687E
:1038380023F08043BB60BB6843F00043BB60FB6878
:103848005A013B69134403F5A0631A46BB68136029
:10385800FB685A013B69134403F5A0631A46022327
:103868009360FB68D8B27968FA6813469B001344E2
:10387800DB000B445C331B781A460146786805F078
:103888005DFF00BF1837BD4680BD000080B58AB017
:1038980000AF78607B681B687B627B6A3B627B68F1
:1038A8001B681B6AFB61FB6903F00F03BB61FB69C3
:1038B8005B0C03F00F037B61FB691B09C3F30A036D
:1038C8003B617B69022B03D0052B00F0828083E0EB
:1038D8003B69002B7FD07968BA6913469B00134473
:1038E800DB000B4444331B68002B74D07B681868DA
:1038F8007968BA6913469B001344DB000B444433D0
:103908001B683A6992B2194603F0F3F87968BA6904
:1039180013469B001344DB000B4444331A683B698D
:10392800D1187868BA6913469B001344DB00034436
:10393800443319607968BA6913469B001344DB0065
:103948000B444C331A683B69D1187868BA69134636
:103958009B001344DB0003444C331960BB695A01D4
:103968003B6A134403F5A0631A691D4B1340002BEF
:1039780031D0BB695A013B6A134403F5A0631B6845
:10398800FB60FB6823F08043FB60FB6843F0004367
:10399800FB60BB695A013B6A134403F5A0631A46EE
:1039A800FB6813607968BA6913469B001344DB000F
:1039B8000B4450331B7883F00103D8B27968BA6995
:1039C80013469B001344DB000B44503302461A7025
:1039D80001E000BF00E000BF00BF2837BD4680BD42
:1039E8000000F81F80B586B000AF78607B681B6860
:1039F8007B617B693B613B6903F588631B68FB60FE
:103A08003B6903F588631B68BB60BB6823F02E0322
:103A1800BB60FB6803F00203022B0BD1FB6803F0C9
:103A28000103012B02D1786805F06CFEBB6843F0F6
:103A38000203BB60FB6803F00803082B32D1BB68A4
:103A480043F00803BB60FB6803F00403042B26D192
:103A58007B689B69022B13D1FB6803F4C023B3F581
:103A6800802F06D17B681B680221184603F07EF977
:103A780011E07B681B680121184603F077F90AE01A
:103A88007B68DB68012B06D13B6903F580631A4626
:103A98004EF660235360786805F05EFE02E07868B1
:103AA80005F068FEFB6803F02003202B03D1BB68F8
:103AB80043F02003BB603B6903F588631A46BB6883
:103AC800136000BF1837BD4680BD000090B585B0B3
:103AD80000AF78607B68002B01D101231FE17B6870
:103AE80093F83D30DBB2002B06D17B68002283F8C7
:103AF8003C207868FDF7DAF87B68242283F83D20BB
:103B08007B681B687A681268126822F001021A60E2
:103B18007B681B687A681268126842F400421A606F
:103B28007B681B687A681268126822F400421A607F
:103B380001F0DCF9F8607B685B687B4A934207D840
:103B4800FB687A4A934294BF01230023DBB206E064
:103B5800FB68774A934294BF01230023DBB2002B12
:103B680001D00123DBE0FB68724AA2FB03239B0C14
:103B7800BB607B681B687A681268526822F03F0154
:103B8800BA680A435A607B681A687B681B681B6AB4
:103B980023F03F017B685B686348834202D8BB68B7
:103BA800013309E0BB684FF4967000FB03F36248E9
:103BB800A0FB03039B0901330B4313627B6818685E
:103BC8007B681B68DB6923F44F4222F0FF027B68A5
:103BD8005B6855498B420DD8FB68591E7B685B684A
:103BE8005B00B1FBF3F30133C3F30B03042B38BFC2
:103BF80004234FE07B689B68002B11D1FB685C1E97
:103C08007B6859680B465B000B44B4FBF3F3013344
:103C1800C3F30B03002B0CBF01230023DBB212E01C
:103C2800FB685C1E7B6859680B469B000B44990037
:103C38000B44B4FBF3F30133C3F30B03002B0CBFAA
:103C480001230023DBB2002B01D0012322E07B6893
:103C58009B68002B0ED1FB685C1E7B6859680B467D
:103C68005B000B44B4FBF3F30133C3F30B0343F4DE
:103C780000430FE0FB685C1E7B6859680B469B009D
:103C88000B4499000B44B4FBF3F30133C3F30B0368
:103C980043F440431343C3617B681B687A68126826
:103CA800126822F0C0017A68D0697A68126A024301
:103CB8000A431A607B681A687B681B689B6823F450
:103CC800034323F0FF03796808697968C9680143E9
:103CD8000B4393607B681B687A681268D26822F08D
:103CE800FF017A6850697A68926902430A43DA6088
:103CF8007B681B687A681268126842F001021A60D1
:103D08007B6800221A647B68202283F83D207B6848
:103D180000221A637B68002283F83E20002318469D
:103D28001437BD4690BD00BFA08601007F841E00E9
:103D3800FF083D0083DE1B43D34D621080B588B079
:103D480000AF78607B68002B01D1012327E17B68F5
:103D580093F84130DBB2002B09D17B68002283F84D
:103D680040207B68904A5A637868FDF717F87B68AB
:103D7800022283F841207B681A687B681B68DB692C
:103D880023F47B6323F00F03D3617B681B68022253
:103D98001A627B685B69022B60D07B68DB68002B4A
:103DA80002D110237B6101E020237B617B689B6843
:103DB800202B02D87B695B007B61012001F0A0F910
:103DC800F8607B681B69B3F5007F25D17B68DB68E9
:103DD800002B10D07B699B00FA68B2FBF3F2134604
:103DE8009B0013445B001A467B685B69B2FBF3F3E4
:103DF80005333B611FE07B69DB00FA68B2FBF3F235
:103E080013469B0013445B001A467B685B69B2FB50
:103E1800F3F305333B610EE0FA687B69B2FBF3F21A
:103E280013469B0013445B001A467B685B69B2FB30
:103E3800F3F305333B613B695C4AA2FB0323DB08D0
:103E48003B613B6903F00103BB613A69BB69D31A63
:103E58005B08FB61BB691B02BB6103E00223FB61DA
:103E68000023BB61FB69012B02D9FB69FF2B07D932
:103E78007B685B6C43F010027B685A6401238EE018
:103E88007B681B687A681169BA691143FA690A4341
:103E98001A627B681A687B681B68DB6923F47B639A
:103EA80023F00F0379684868796889680843796856
:103EB800C96808437968896901430B4343F400637F
:103EC800D3617B681B6A012B61D17B68384A5A63CE
:103ED8007B681B68374A934201D1374A01E04FF0AB
:103EE80040227B681B6833498B4201D1324B01E089
:103EF8004FF04023DB6923F47B6323F00F03D36186
:103F08007B681B682B4A934201D12B4B01E04FF091
:103F1800402302221A627B681B68264A934201D119
:103F2800254B01E04FF04023DB697B817B685B68B0
:103F3800B3F5007F03D07B685B68002B03D14FF497
:103F480080733B6101E000233B613B699AB27B6867
:103F58009B6899B27B68DB6898B27B689B699BB267
:103F680003439BB20B439BB213439AB27B8913431F
:103F78009BB243F400637B817B681B680D4A9342C4
:103F880001D10D4B01E04FF040237A89DA617B685B
:103F980000225A647B68012283F8412000231846D6
:103FA8002037BD4680BD00BFBB400008CDCCCCCC7F
:103FB800D1410008003800400034004080B483B08C
:103FC80000AF786000BF0C37BD465DF8047B7047D2
:103FD80080B483B000AF786000BF0C37BD465DF891
:103FE800047B704780B483B000AF786000BF0C37A3
:103FF800BD465DF8047B704780B582B000AF78603D
:104008007B681B687A68526A1288DA607B685B6A28
:104018009A1C7B685A627B685B8D9BB2013B9AB2A3
:104028007B685A857B685B8D9BB2002B0ED17B68C1
:104038001B687A681268526822F0A0025A607B688E
:10404800012283F841207868FFF7B8FF00BF0837DE
:10405800BD4680BD80B582B000AF78607B68DB6A02
:104068007A681268D26892B21A807B68DB6A9A1CF6
:104078007B68DA627B685B8E9BB2013B9AB27B6895
:104088005A867B685B8E9BB2002B0ED17B681B68BF
:104098007A681268526822F060025A607B680122CE
:1040A80083F841207868FFF793FF00BF0837BD46C3
:1040B80080BD80B586B000AF78607B681B689B6860
:1040C8007B617B6893F84130DBB2042B3AD17B6982
:1040D80003F00103012B09D17B681B685B6803F0BF
:1040E8004003402B02D17868FFF7B4FF7B6903F0E7
:1040F8004003402B26D17B681B685B6803F02003D4
:10410800202B1FD17B681B687A681268526822F0DE
:1041180060025A6000233B617B681B68DB683B6177
:104128007B681B689B683B613B697B68012283F85D
:1041380041207B685B6C43F002027B685A647868B4
:10414800FFF750FF7B6893F84130DBB2032B36D181
:104158007B6903F00203022B09D17B681B685B684B
:1041680003F08003802B02D17868FFF745FF7B6955
:1041780003F00803082B22D17B681B685B6803F0F7
:104188002003202B1BD17B681B687A681268526851
:1041980022F0A0025A600023FB607B681B689B68C2
:1041A800FB60FB687B68012283F841207B685B6CBD
:1041B80043F004027B685A647868FFF713FF00BF76
:1041C8001837BD4680BD000080B588B000AF786064
:1041D8007B681B689B68FB617B681B68A24A9342EB
:1041E80001D1A24B01E04FF040239B68BB617B6883
:1041F8001B685B687B617B681B689B4A934201D1A3
:104208009A4B01E04FF040235B683B617B685B6839
:10421800B3F5007F04D07B685B68002B40F0998081
:10422800FB6903F00203022B07D17B6903F08003CB
:10423800002B02D0786800F025F9BB6903F0010370
:10424800012B07D13B6903F04003002B02D07868AB
:1042580000F0C6F9BB6903F04003402B3AD13B6933
:1042680003F02003002B35D07B681B687E4A9342FD
:1042780001D17E4B01E04FF040237A6812687A49F9
:104288008A4201D1794A01E04FF04022526822F077
:1042980060025A607B681B687A681268526822F06C
:1042A800A0025A600023FB607B681B68DB68FB6028
:1042B8007B681B689B68FB60FB687B68012283F84E
:1042C80041207B685B6C43F002027B685A64786823
:1042D800FFF788FEFB6903F00803082B40F0BE8057
:1042E8007B6903F02003002B00F0B8807B681B6813
:1042F8007A681268526822F0A0025A607B681B68CC
:10430800594A934201D1594B01E04FF040237A6852
:10431800126855498A4201D1544A01E04FF04022BF
:10432800526822F060025A600023BB607B681B68F9
:104338009B68BB60BB687B68012283F841207B686F
:104348005B6C43F004027B685A647868FFF74AFEA6
:1043580084E0BB6903F00203022B07D13B6903F039
:104368008003002B02D0786800F0BEF8FB6903F0E8
:104378000103012B07D17B6903F04003002B02D016
:10438800786800F0FBF8FB6903F04003402B2FD15D
:104398007B6903F02003002B2AD07B681B687A68AE
:1043A8001268526822F060025A607B681B682E4AC5
:1043B800934201D12D4B01E04FF040237A681268F7
:1043C80029498A4201D1294A01E04FF04022526826
:1043D80022F0A0025A607B68012283F841207B68A2
:1043E8005B6C43F002027B685A647868FFF7FAFD59
:1043F800BB6903F00803082B31D13B6903F02003A4
:10440800002B2CD07B681B68174A934201D1174BAD
:1044180001E04FF040237A68126813498A4201D1BB
:10442800124A01E04FF04022526822F0A0025A607E
:104438007B681B687A681268526822F060025A60CA
:104448007B68012283F841207B685B6C43F004029F
:104458007B685A647868FFF7C5FD00E000BF00BFBD
:104468002037BD4680BD00BF003800400034004002
:1044780080B483B000AF786000BF0C37BD465DF8EC
:10448800047B704780B582B000AF78607B681A689B
:104498007B685B6A981C796848621B88D3607B6874
:1044A8005B8D9BB2013B9AB27B685A857B685B8DBA
:1044B8009BB2002B13D17B681B687A68126852681C
:1044C80022F0A0025A607B685B8E9BB2002B06D15B
:1044D8007B68012283F841207868FFF7C9FF00BF95
:1044E8000837BD4680BD000080B582B000AF786057
:1044F8007B681B681F4A934201D11F4A01E04FF0B5
:1045080040227B685B6A981C796848621B88D36084
:104518007B685B8D9BB2013B9AB27B685A857B684E
:104528005B8D9BB2002B21D17B681B68114A93429B
:1045380001D1114B01E04FF040237A6812680D4910
:104548008A4201D10C4A01E04FF04022526822F021
:10455800A0025A607B685B8E9BB2002B06D17B68F9
:10456800012283F841207868FFF782FF00BF0837EF
:10457800BD4680BD003800400034004080B582B0A0
:1045880000AF78607B68DB6A991C7A68D1627A68C8
:104598001268D26892B21A807B685B8E9BB2013B2C
:1045A8009AB27B685A867B685B8E9BB2002B13D1CC
:1045B8007B681B687A681268526822F060025A6049
:1045C8007B685B8D9BB2002B06D17B68012283F848
:1045D80041207868FFF74CFF00BF0837BD4680BD13
:1045E80080B582B000AF78607B68DB6A991C7A6816
:1045F800D1627A6812681E498A4201D11D4A01E0D7
:104608004FF04022D26892B21A807B685B8E9BB2D0
:10461800013B9AB27B685A867B685B8E9BB2002B03
:1046280021D17B681B68124A934201D1114B01E0EA
:104638004FF040237A6812680D498A4201D10D4A29
:1046480001E04FF04022526822F060025A607B6815
:104658005B8D9BB2002B06D17B68012283F8412039
:104668007868FFF705FF00BF0837BD4680BD00BF6B
:10467800003800400034004080B586B000AF786054
:104688007B68002B01D101235BE27B681B6803F088
:104698000103002B75D0A34B9B6803F00C03042B7C
:1046A8000CD0A04B9B6803F00C03082B12D19D4B38
:1046B8005B6803F48003B3F5800F0BD1994B1B683B
:1046C80003F40033002B5BD07B685B68002B57D169
:1046D800012336E27B685B68B3F5803F06D1914AD7
:1046E800904B1B6843F4803313601DE07B685B6864
:1046F800B3F5A02F0CD18B4A8A4B1B6843F4802357
:104708001360884A874B1B6843F4803313600BE0BF
:10471800844A844B1B6823F480331360814A814B9D
:104728001B6823F4802313607B685B68002B13D01D
:10473800FDF7D4F9386108E0FDF7D0F902463B6986
:10474800D31A642B01D90323FBE1764B1B6803F4CE
:104758000033002BF0D014E0FDF7C0F9386108E011
:10476800FDF7BCF902463B69D31A642B01D9032330
:10477800E7E16C4B1B6803F40033002BF0D100E039
:1047880000BF7B681B6803F00203002B63D0654BF6
:104798009B6803F00C03002B0BD0624B9B6803F063
:1047A8000C03082B1CD15F4B5B6803F48003002BC0
:1047B80016D15C4B1B6803F00203002B05D07B6805
:1047C800DB68012B01D00123BBE15649554B1B681F
:1047D80023F0F8027B681B69DB0013430B603AE0A7
:1047E8007B68DB68002B20D04F4B01221A60FDF755
:1047F80075F9386108E0FDF771F902463B69D31A8B
:10480800022B01D903239CE1464B1B6803F00203EA
:10481800002BF0D04349434B1B6823F0F8027B6818
:104828001B69DB0013430B6015E03F4B00221A6045
:10483800FDF754F9386108E0FDF750F902463B6985
:10484800D31A022B01D903237BE1364B1B6803F0F3
:104858000203002BF0D17B681B6803F00803002BD0
:1048680030D07B685B69002B16D0304B01221A6070
:10487800FDF734F9386108E0FDF730F902463B6985
:10488800D31A022B01D903235BE1264B5B6F03F09C
:104898000203002BF0D015E0244B00221A60FDF72C
:1048A8001DF9386108E0FDF719F902463B69D31A8A
:1048B800022B01D9032344E11A4B5B6F03F0020377
:1048C800002BF0D17B681B6803F00403002B00F079
:1048D800A0800023FB75134B1B6C03F08053002B47
:1048E8000FD10023BB600F4A0E4B1B6C43F0805363
:1048F80013640C4B1B6C03F08053BB60BB68012333
:10490800FB750B4B1B6803F48073002B21D1084AFD
:10491800074B1B6843F480731360FDF7DFF83861B9
:1049280011E000BF0038024000004742800E4742B5
:1049380000700040FDF7D2F802463B69D31A022BFB
:1049480001D90323FDE0814B1B6803F48073002B1E
:10495800F0D07B689B68012B06D17D4A7C4B1B6F8E
:1049680043F0010313671CE07B689B68052B0CD19F
:10497800774A774B1B6F43F004031367744A744BF1
:104988001B6F43F0010313670BE0714A704B1B6FF9
:1049980023F0010313676E4A6D4B1B6F23F004036A
:1049A80013677B689B68002B15D0FDF797F8386173
:1049B8000AE0FDF793F802463B69D31A41F28832C0
:1049C800934201D90323BCE0614B1B6F03F0020340
:1049D800002BEED014E0FDF781F838610AE0FDF70E
:1049E8007DF802463B69D31A41F28832934201D9D5
:1049F8000323A6E0564B1B6F03F00203002BEED1F6
:104A0800FB7D012B05D1524A514B1B6C23F080537F
:104A180013647B689B69002B00F092804C4B9B6869
:104A280003F00C03082B5CD07B689B69022B41D1F7
:104A3800484B00221A60FDF751F8386108E0FDF78D
:104A48004DF802463B69D31A022B01D9032378E0BB
:104A58003F4B1B6803F00073002BF0D13C497B6887
:104A6800DA697B681B6A1A437B685B6A9B011A4395
:104A78007B689B6A5B08013B1B041A437B68DB6A03
:104A88001B0613434B60334B01221A60FDF726F8CF
:104A9800386108E0FDF722F802463B69D31A022B79
:104AA80001D903234DE02A4B1B6803F00073002B48
:104AB800F0D045E0274B00221A60FDF70FF8386167
:104AC80008E0FDF70BF802463B69D31A022B01D91F
:104AD800032336E01E4B1B6803F00073002BF0D154
:104AE8002EE07B689B69012B01D1012329E0184B3B
:104AF8005B68FB60FB6803F480027B68DB699A42B1
:104B08001CD1FB6803F03F027B681B6A9A4215D1EF
:104B1800FA6847F6C07313407A68526A93420DD117
:104B2800FB6803F440327B689B6A9A4206D1FB68B3
:104B380003F070627B68DB6A9A4201D0012300E0CF
:104B4800002318461837BD4680BD00BF00700040DE
:104B5800003802406000474280B584B000AF7860FA
:104B680039607B68002B01D10123CCE0684B1B68BE
:104B780003F00F023B689A420CD2654B3A68D2B2F6
:104B88001A70634B1B6803F00F023B689A4201D00E
:104B98000123B8E07B681B6803F00203002B20D0D8
:104BA8007B681B6803F00403002B05D0594A594B56
:104BB8009B6843F4E05393607B681B6803F0080329
:104BC800002B05D0534A534B9B6843F460439360D2
:104BD8005049504B9B6823F0F0027B689B68134355
:104BE8008B607B681B6803F00103002B44D07B6853
:104BF8005B68012B07D1474B1B6803F40033002B7C
:104C080019D101237FE07B685B68022B03D07B68A6
:104C18005B68032B07D13F4B1B6803F00073002B25
:104C280009D101236FE03B4B1B6803F00203002B03
:104C380001D1012367E03749364B9B6823F0030213
:104C48007B685B6813438B60FCF748FFF8600AE0F9
:104C5800FCF744FF0246FB68D31A41F288329342BC
:104C680001D903234FE02B4B9B6803F00C027B68B0
:104C78005B689B009A42EBD1254B1B6803F00F023F
:104C88003B689A420CD9224B3A68D2B21A70204B30
:104C98001B6803F00F023B689A4201D0012332E0FF
:104CA8007B681B6803F00403002B08D01949194BD3
:104CB8009B6823F4E0527B68DB6813438B607B6856
:104CC8001B6803F00803002B09D01249114B9B689D
:104CD80023F460427B681B69DB0013438B6000F0A0
:104CE80021F801460B4B9B681B0903F00F030A4A86
:104CF800D35C21FA03F3094A1360094B1B68184671
:104D0800FCF7A8FE002318461037BD4680BD00BF3B
:104D1800003C024000380240F09D000800000020DE
:104D2800040000202DE9F04F8FB000AF0023FB6294
:104D380000237B630023BB6200233B63624B9B68B9
:104D480003F00C03042B07D0082B08D0002B40F0ED
:104D5800B2805E4B3B63B1E05D4B3B63AEE05A4BC8
:104D68005B6803F03F03FB62574B5B6803F4800307
:104D7800002B4ED0544B5B689B094FF0000440F267
:104D8800FF114FF0000201EA030102EA04020B4698
:104D9800144660017862786A40EAD36078625B0101
:104DA8003B62D7E908345B1A64EB02044FEA8419C2
:104DB80049EA93694FEA8318B8EB030869EB0409D9
:104DC8004FEAC903FB61FB6943EA5873FB614FEA89
:104DD800C803BB61D7E9068918EB010849EB02094A
:104DE8004FEA49237B617B6943EAD8537B614FEAE9
:104DF80048233B61D7E9048940464946FB6A4FF09E
:104E080000041A462346FBF79DFC03460C467B63C9
:104E180043E02D4B5B689B094FF0000440F2FF1103
:104E28004FF0000201EA030102EA04020B461446AD
:104E38006001F860F86840EAD360F8605B01BB6025
:104E4800D7E902345B1A64EB0204A60146EA9366CA
:104E58009D01ED1A66EB0406F3007B607B6843EA6C
:104E680055737B60EB003B6097E860006D1846EB7C
:104E780002064FEA862B4BEA955B4FEA852A554690
:104E88005E4628463146FB6A4FF000041A46234620
:104E9800FBF758FC03460C467B630B4B5B681B0C0B
:104EA80003F0030301335B00BB627A6BBB6AB2FB9E
:104EB800F3F33B6302E0054B3B6300BF3B6B1846D3
:104EC8003C37BD46BDE8F08F003802400024F400AE
:104ED80000127A0080B400AF034B1B681846BD4629
:104EE8005DF8047B704700BF0000002080B500AF6C
:104EF800FFF7F0FF0146054B9B689B0A03F0070389
:104F0800034AD35C21FA03F3184680BD00380240F7
:104F1800009E000880B500AFFFF7DCFF0146054B97
:104F28009B685B0B03F00703034AD35C21FA03F386
:104F3800184680BD00380240009E000880B586B043
:104F480000AF786000237B6100233B617B681B68AE
:104F580003F00103002B05D17B681B6803F00403F1
:104F6800002B35D0624B00221A60FCF7B7FD786140
:104F780008E0FCF7B3FD02467B69D31A022B01D97E
:104F88000323B0E05B4B1B6803F00063002BF0D1F8
:104F980058497B685B689A017B689B681B071343C9
:104FA800C1F88430524B01221A60FCF797FD7861F2
:104FB80008E0FCF793FD02467B69D31A022B01D95E
:104FC800032390E04B4B1B6803F00063002BF0D0E9
:104FD8007B681B6803F00203002B00F0838000232A
:104FE800FB60444A434B1B6C43F080531364414BB2
:104FF8001B6C03F08053FB60FB683F4A3E4B1B6809
:1050080043F480731360FCF769FD786108E0FCF7EE
:1050180065FD02467B69D31A022B01D9032362E09E
:10502800354B1B6803F48073002BF0D0314B1B6F9A
:1050380003F440733B613B69002B2FD07B68DB682E
:1050480003F440723B699A4228D02A4B1B6F23F421
:1050580040733B61294B01221A60284B00221A60D9
:10506800244A3B691367234B1B6F03F00103012B91
:1050780014D1FCF733FD78610AE0FCF72FFD0246F6
:105088007B69D31A41F28832934201D903232AE07B
:10509800184B1B6F03F00203002BEED07B68DB6814
:1050A80003F44073B3F5407F0DD11249114B9B684F
:1050B80023F4F8127B68DB6823F0704323F4407311
:1050C80013438B6005E00B4A0A4B9B6823F4F813E3
:1050D80093600849074B1A6F7B68DB68C3F30B03BF
:1050E80013430B67002318461837BD4680BD00BF21
:1050F800680047420038024000700040400E4742B6
:1051080080B487B000AF786000237B6100233B61E7
:105118000023FB600023BB607B68012B3DD1224B41
:105128009B6803F40003FB60FB68002B04D0012B91
:105138002FD11E4B7B612FE01B4B5B6803F4800370
:10514800B3F5800F08D1184B5B6803F03F03184A8A
:10515800B2FBF3F33B6107E0134B5B6803F03F03DB
:10516800144AB2FBF3F33B610F4BD3F884309B092D
:10517800C3F308033A6902FB03F3BB600A4BD3F895
:1051880084301B0F03F00703BA68B2FBF3F37B61AB
:1051980002E000237B6100BF00BF7B6918461C3713
:1051A800BD465DF8047B7047003802400080BB00B4
:1051B80000127A000024F40080B582B000AF786055
:1051C8007B68002B01D1012355E07B6800229A629D
:1051D8007B6893F85130DBB2002B06D17B68002244
:1051E80083F850207868FCF797F97B68022283F8E7
:1051F80051207B681B687A681268126822F04002A6
:105208001A607B681B687A6851687A6892681143EB
:105218007A68D26811437A68126911437A685269C8
:1052280011437A68926902F4007211437A68D2696C
:1052380011437A68126A11437A68926A0A431A60BB
:105248007B681B687A689269120C02F004017A681C
:10525800526A0A435A607B681B687A681268D26986
:1052680022F40062DA617B6800225A657B680122B9
:1052780083F85120002318460837BD4680BD80B505
:1052880082B000AF78607B68002B01D101231DE05C
:105298007B6893F83D30DBB2002B06D17B68002297
:1052A80083F83C207868FCF7E5FA7B68022283F8EB
:1052B8003D207B681A687B6804331946104600F065
:1052C800FBF97B68012283F83D2000231846083744
:1052D800BD4680BD80B582B000AF78607B68002B8A
:1052E80001D101231DE07B6893F83D30DBB2002B30
:1052F80006D17B68002283F83C20786800F015F816
:105308007B68022283F83D207B681A687B68043337
:105318001946104600F0D0F97B68012283F83D2039
:10532800002318460837BD4680BD80B483B000AF5F
:10533800786000BF0C37BD465DF8047B70470000FD
:1053480080B584B000AF786039607B681B68012243
:105358003968184600F09AFC7B681B68154A934226
:1053680004D07B681B68144A934201D1012300E0F2
:105378000023002B07D07B681B687A681268526C80
:1053880042F400425A647B681B689B6803F0070379
:10539800FB60FB68062B07D07B681B687A6812687D
:1053A800126842F001021A60002318461037BD4601
:1053B80080BD00BF000001400004014080B584B0FA
:1053C80000AFF860B9607A60FB6893F83C30012B55
:1053D80001D10223B4E0FB68012283F83C20FB687A
:1053E800022283F83D207B680C2B00F29F8001A2EB
:1053F80052F823F031540008355500083555000897
:105408003555000871540008355500083555000811
:1054180035550008B35400083555000835550008BF
:1054280035550008F3540008FB681B68B96818462E
:1054380000F0E2F9FB681B68FA681268926942F0AA
:1054480008029A61FB681B68FA681268926922F080
:1054580004029A61FB681B68FA6812689169BA6865
:1054680012690A439A6162E0FB681B68B9681846CA
:1054780000F032FAFB681B68FA681268926942F415
:1054880000629A61FB681B68FA681268926922F4E4
:1054980080629A61FB681B68FA6812689169BA6849
:1054A800126912020A439A6141E0FB681B68B968F5
:1054B800184600F087FAFB681B68FA681268D26918
:1054C80042F00802DA61FB681B68FA681268D26960
:1054D80022F00402DA61FB681B68FA681268D16975
:1054E800BA6812690A43DA6121E0FB681B68B96887
:1054F800184600F0DBFAFB681B68FA681268D26984
:1055080042F40062DA61FB681B68FA681268D269C3
:1055180022F48062DA61FB681B68FA681268D16954
:10552800BA68126912020A43DA6100E000BFFB6838
:10553800012283F83D20FB68002283F83C200023E9
:1055480018461037BD4680BD80B584B000AF78607E
:1055580039607B6893F83C30012B01D10223A6E027
:105568007B68012283F83C207B68022283F83D2077
:105578007B681B689B68FB60FB6823F07703FB6014
:10558800FB6823F47F43FB607B681B68FA689A60BA
:105598003B681B68402B67D0402B0BD8102B73D06F
:1055A800102B02D8002B6FD078E0202B6CD0302B3A
:1055B8006AD073E0702B0DD0702B04D8502B33D0E9
:1055C800602B41D06AE0B3F5805F66D0B3F5005F29
:1055D80017D063E07B6818683B6899683B685A682D
:1055E8003B68DB6800F032FB7B681B689B68FB60EC
:1055F800FB6843F07703FB607B681B68FA689A6076
:105608004CE07B6818683B6899683B685A683B6857
:10561800DB6800F01BFB7B681B687A68126892687D
:1056280042F480429A6039E07B6818683B685968A0
:105638003B68DB681A4600F08FFA7B681B685021CC
:10564800184600F0E8FA29E07B6818683B68596852
:105658003B68DB681A4600F0AEFA7B681B6860217D
:10566800184600F0D8FA19E07B6818683B68596852
:105678003B68DB681A4600F06FFA7B681B684021BC
:10568800184600F0C8FA09E07B681A683B681B688E
:105698001946104600F0BFFA00E000BF7B680122FF
:1056A80083F83D207B68002283F83C2000231846BD
:1056B8001037BD4680BD000080B485B000AF78606B
:1056C80039607B681B68FB607B68404A934213D053
:1056D8007B68B3F1804F0FD07B683D4A93420BD073
:1056E8007B683C4A934207D07B683B4A934203D08D
:1056F8007B683A4A934208D1FB6823F07003FB6049
:105708003B685B68FA681343FB607B682F4A9342E7
:105718002BD07B68B3F1804F27D07B682C4A93420B
:1057280023D07B682B4A93421FD07B682A4A934236
:105738001BD07B68294A934217D07B68284A93423A
:1057480013D07B68274A93420FD07B68264A93423E
:105758000BD07B68254A934207D07B68244A934242
:1057680003D07B68234A934208D1FB6823F4407333
:10577800FB603B68DB68FA681343FB60FB6823F057
:1057880080023B685B691343FB607B68FA681A60B8
:105798003B689A687B68DA623B681A687B689A6239
:1057A8007B680A4A934203D07B680C4A934203D130
:1057B8003B681A697B681A637B6801225A6100BFDB
:1057C8001437BD465DF8047B704700BF00000140F8
:1057D8000004004000080040000C004000040140A4
:1057E80000400140004401400048014000180040CA
:1057F800001C00400020004080B487B000AF7860F3
:1058080039607B681B6A23F001027B681A627B6837
:105818001B6A7B617B685B683B617B689B69FB609B
:10582800FB6823F07003FB60FB6823F00303FB6055
:105838003B681B68FA681343FB607B6923F002032B
:105848007B613B689B687A6913437B617B68204A6C
:10585800934203D07B681F4A93420CD17B6923F0A3
:1058680008037B613B68DB687A6913437B617B696A
:1058780023F004037B617B68154A934203D07B685D
:10588800144A934211D13B6923F480733B613B690D
:1058980023F400733B613B685B693A6913433B61DE
:1058A8003B689B693A6913433B617B683A695A6074
:1058B8007B68FA689A613B685A687B685A637B68B8
:1058C8007A691A6200BF1C37BD465DF8047B7047D1
:1058D800000001400004014080B487B000AF786048
:1058E80039607B681B6A23F010027B681A627B6848
:1058F8001B6A7B617B685B683B617B689B69FB60BB
:10590800FB6823F4E043FB60FB6823F44073FB600F
:105918003B681B681B02FA681343FB607B6923F032
:1059280020037B613B689B681B017A6913437B6199
:105938007B68224A934203D07B68214A93420DD167
:105948007B6923F080037B613B68DB681B017A6914
:1059580013437B617B6923F040037B617B68174AB3
:10596800934203D07B68164A934213D13B6923F4D0
:1059780080633B613B6923F400633B613B685B697F
:105988009B003A6913433B613B689B699B003A69FA
:1059980013433B617B683A695A607B68FA689A618D
:1059A8003B685A687B689A637B687A691A6200BFA9
:1059B8001C37BD465DF8047B704700BF00000140FE
:1059C8000004014080B487B000AF786039607B681C
:1059D8001B6A23F480727B681A627B681B6A7B618E
:1059E8007B685B683B617B68DB69FB60FB6823F075
:1059F8007003FB60FB6823F00303FB603B681B68D4
:105A0800FA681343FB607B6923F400737B613B688E
:105A18009B681B027A6913437B617B68214A934226
:105A280003D07B68204A93420DD17B6923F400633D
:105A38007B613B68DB681B027A6913437B617B6986
:105A480023F480637B617B68164A934203D07B68AA
:105A5800154A934213D13B6923F480533B613B6958
:105A680023F400533B613B685B691B013A691343AC
:105A78003B613B689B691B013A6913433B617B6847
:105A88003A695A607B68FA68DA613B685A687B68E9
:105A9800DA637B687A691A6200BF1C37BD465DF815
:105AA800047B7047000001400004014080B487B0C7
:105AB80000AF786039607B681B6A23F480527B688A
:105AC8001A627B681B6A3B617B685B687B617B68E9
